:020000040000FA
:040000000DEF00F010
:04000800E4EF15F01C
:06001800FF00D3EF15F01C
:101500000041444320526573756C743A2025640A87
:031510000D0000CB
:1015140021C539F522C53AF523C53BF524C53CF56B
:1015240025C53DF526C53EF527C53FF528C540F53B
:1015340040BE9FEF0AF0A2EF0AF0010EA3EF0AF0FB
:10154400000E376E386A37503810D8B4ACEF0AF052
:10155400AEEF0AF0BEEF0AF0401E3F1E3E1E3D1ED7
:101564003C1E3B1E3A1E396C000E3A223B223C22A2
:101574003D223E223F224022050165BFC4EF0AF00E
:10158400C6EF0AF0C7EF0AF0669365BFD4EF0AF01E
:10159400655106E16405D8B0D2EF0AF0D4EF0AF041
:1015A400DAEF0AF0000E346E010E336EDEEF0AF04D
:1015B40064C533F565C534F562C535F563C536F5DF
:1015C40037503810D8A4E9EF0AF0EBEF0AF0F2EF45
:1015D4000AF066A5F0EF0AF0F2EF0AF0F5EF0AF070
:1015E4003506D8A03606000E426E1F0E416E000E60
:1015F400966F79EF0BF04106D8A04206770E41248E
:10160400D96E050E4220DA6E39C502F53AC503F5E6
:101614003BC504F53CC505F53DC506F53EC507F5D6
:101624003FC508F540C509F50A0E0A6E000E0B6E9B
:10163400000E0C6E000E0D6E000E0E6E000E0F6E80
:10164400000E106E000E116EBBEC0DF002C529F5F4
:1016540003C52AF504C52BF505C52CF506C52DF5DE
:1016640007C52EF508C52FF509C530F529C514F5AC
:101674002BC515F5EFEC14F01450300FDF6E330664
:10168400D8A034063506D8A0360639C502F53AC5C1
:1016940003F53BC504F53CC505F53DC506F53EC55A
:1016A40007F53FC508F540C509F50A0E0A6E000E98
:1016B4000B6E000E0C6E000E0D6E000E0E6E000E04
:1016C4000F6E000E106E000E116EF7EC0CF002C5DA
:1016D40039F503C53AF504C53BF505C53CF506C522
:1016E4003DF507C53EF508C53FF509C540F542BEC1
:1016F40084EF0BF0425008E14104D8A084EF0BF0D2
:1017040086EF0BF0B7EF0BF039503A103B103C105A
:101714003D103E103F104010D8A493EF0BF095EF0E
:101724000BF0FDEF0AF034BEA2EF0BF0345006E1EB
:101734003304D8B0A0EF0BF0A2EF0BF0FDEF0AF0EA
:1017440036BEADEF0BF0365008E13504D8A0ADEF4E
:101754000BF0AFEF0BF0B7EF0BF0050166B3B5EF8D
:101764000BF0B7EF0BF0FDEF0AF037503810D8A4A8
:10177400BEEF0BF0C0EF0BF0C8EF0BF0050166A550
:10178400C6EF0BF0C8EF0BF0E7EF0BF04106D8A063
:10179400420637503810D8A4D2EF0BF0D4EF0BF038
:1017A400DAEF0BF0000E326E2B0E316EDEEF0BF023
:1017B400000E326E2D0E316E770E4124D96E050E59
:1017C4004220DA6E6100C4F4DFF41FC514F520C5AD
:1017D40015F5770E4124166E050E4220176E35C599
:1017E40018F536C519F573EC11F014C51FF515C5B8
:1017F40020F51200610014F5D9F4610018F5DAF44B
:10180400DEC4F6F4DDC4F7F4F86A0800F550250ADE
:10181400D8A40FEF0CF011EF0CF0D6EF0CF0610030
:1018240014F5D9F4610018F5DAF4DE2A000EDD228D
:10183400000E0501636F000E626F62C566F563C535
:1018440067F564696569610014F5D9F4610018F5F8
:10185400DAF4DEC4F6F4DDC4F7F4F86A0800F550EF
:10186400640AD8B438EF0CF03AEF0CF04FEF0CF0F8
:10187400610014F5D9F4610018F5DAF4DEC4F6F465
:10188400DDC4F7F4F86A0800F550690AD8A44DEFEE
:101894000CF04FEF0CF099EF0CF0610014F5D9F453
:1018A400610018F5DAF4DE2A000EDD2261001CF571
:1018B400D9F4610020F5DAF461007CF349F5020EF5
:1018C400DE2661007CF34AF5000EDD22610024F57A
:1018D400D9F4610028F5DAF4610078F34BF561007E
:1018E40074F34CF5000E4CBEFF0E4D6E4E6E4F6EF3
:1018F400506E516E526E43C51FF544C520F54BC55D
:1019040021F54CC522F54DC523F54EC524F54FC52B
:1019140025F550C526F551C527F552C528F58AEC9D
:101924000AF01FC543F520C544F5F6EF0CF061003D
:1019340014F5D9F4610018F5DAF4DEC4F6F4DDC464
:10194400F7F4F86A0800F550250AD8A4ACEF0CF0B7
:10195400AEEF0CF0C7EF0CF0610014F5D9F46100A0
:1019640018F5DAF4DE2A000EDD22000E056E250ECF
:10197400046E43C506F544C507F572EC12F0000E7B
:10198400446E010E436EF6EF0CF0610014F5D9F4C9
:10199400610018F5DAF4DE2A000EDD22000E446E32
:1019A400000E436EF6EF0CF0610014F5D9F46100FB
:1019B40018F5DAF4DEC4F6F4DDC4F7F4F86A0800C6
:1019C400F550046E056A43C506F544C507F572EC87
:1019D40012F0610014F5D9F4610018F5DAF4DE2A86
:1019E400000EDD22C1EF0CF01200000E136E11BECA
:1019F40000EF0DF0FEEF0CF012EF0DF0111E101EB3
:101A04000F1E0E1E0D1E0C1E0B1E0A6C000E0B224A
:101A14000C220D220E220F2210221122010E136E0F
:101A240009BE19EF0DF017EF0DF02BEF0DF0091EA5
:101A3400081E071E061E051E041E031E026C000E51
:101A44000322042205220622072208220922010E6B
:101A5400131A21EE14F1070EDE6AE806FDE20A50BD
:101A64000B100C100D100E100F1010101110D8B414
:101A74003EEF0DF040EF0DF092EF0DF0010E126EFF
:101A84004EEF0DF0D8900A360B360C360D360E3666
:101A94000F3610361136122A11AE53EF0DF055EFF2
:101AA4000DF044EF0DF0D89014361536163617366F
:101AB400183619361A361B360A50025C0B50035876
:101AC4000C5004580D5005580E5006580F50075826
:101AD4001050085811500958D8A073EF0DF075EF45
:101AE4000DF086EF0DF00A50025E0B50035A0C50B5
:101AF400045A0D50055A0E50065A0F50075A1050EA
:101B0400085A1150095A1480D890113210320F32E9
:101B14000E320D320C320B320A32122E55EF0DF00A
:101B24001350D8B498EF0DF09AEF0DF0AAEF0DF022
:101B34001B1E1A1E191E181E171E161E151E146CA7
:101B4400000E152216221722182219221A221B22ED
:101B540014C502F515C503F516C504F517C505F535
:101B640018C506F519C507F51AC508F51BC509F505
:101B74001200000E136E09BEC4EF0DF0C2EF0DF09B
:101B8400D6EF0DF0091E081E071E061E051E041EB4
:101B9400031E026C000E03220422052206220722E1
:101BA40008220922010E136E11BEDDEF0DF0DBEFEA
:101BB4000DF0EDEF0DF0111E101E0F1E0E1E0D1E6A
:101BC4000C1E0B1E0A6C000E0B220C220D220E2280
:101BD4000F22102211220A500B100C100D100E109F
:101BE4000F1010101110D8B4FAEF0DF0FCEF0DF037
:101BF40044EF0EF0010E126E0AEF0EF0D8900A3682
:101C04000B360C360D360E360F3610361136122AB8
:101C140011AE0FEF0EF011EF0EF000EF0EF00A50C0
:101C2400025C0B5003580C5004580D5005580E50CC
:101C340006580F5007581050085811500958D8A08A
:101C440026EF0EF028EF0EF038EF0EF00A50025E89
:101C54000B50035A0C50045A0D50055A0E50065A94
:101C64000F50075A1050085A1150095AD89011327F
:101C740010320F320E320D320C320B320A32122E67
:101C840011EF0EF01350D8B44AEF0EF04CEF0EF0F3
:101C94005CEF0EF0091E081E071E061E051E041E1C
:101CA400031E026C000E03220422052206220722D0
:101CB4000822092202C502F503C503F504C504F58B
:101CC40005C505F506C506F507C507F508C508F5F4
:101CD40009C509F512005E50D8A473EF0EF075EF34
:101CE4000EF07DEF0EF0000EBE6EC09A010E0501DF
:101CF4006F6F010E5E6E5E04D8A483EF0EF085EF65
:101D04000EF0F9EF0EF0100E49EC15F003C502F5D4
:101D1400036A02500501706F010EA76F150EA86FBC
:101D24006000A8FF5BF56000ACFF5CF5040E5D6E1F
:101D3400D8905C325B325D2E9AEF0EF05BC5A9F54C
:101D44005CC5AAF5ACEC15F0530EE82EFED700F0F6
:101D5400050170077029D8A4B2EF0EF0B4EF0EF0AD
:101D6400A6EF0EF06FC55BF5010E5B165B3A5B46A2
:101D7400BE505B18DF0B5B18BE6E6FC55BF5D89069
:101D84005B32010E5B165B46BE505B18FD0B5B18A5
:101D9400BE6E6FC55BF5D8905B32D8905B32010E96
:101DA4005B165B465B46BE505B18FB0B5B18BE6E56
:101DB4006FC55BF5D8905B32D8905B32D8905B32BC
:101DC400010E5B165B3A5B46C0505B18DF0B5B1879
:101DD400C06E6F516F256F6F100E6F19D8A4F5EF99
:101DE4000EF0F7EF0EF0F9EF0EF0010E6F6F050134
:101DF4007551D8B400EF0FF002EF0FF004EF0FF0BD
:101E0400000E5E6E12005E50D8A40BEF0FF00DEFC3
:101E14000FF012EF0FF0000EBE6EC09A010E5E6E50
:101E24005E04D8A418EF0FF01AEF0FF088EF0FF04C
:101E3400100E49EC15F00C0E5B6ED8900332023292
:101E44005B2E1FEF0FF0025005016C6F000E036E46
:101E5400000E026E6CC504F55BEC14F0010E050176
:101E6400A76F150EA86F6000A8FF5BF56000ACFFBC
:101E74005CF5040E5D6ED8905C325B325D2E3DEFF6
:101E84000FF05BC5A9F55CC5AAF5ACEC15F0000E26
:101E9400036E000E026E3DEC16F005016B6F6BC510
:101EA4005BF5010E5B165B3A5B46BE505B18DF0BBD
:101EB4005B18BE6E6BC55BF5D8905B32010E5B168A
:101EC4005B46BE505B18FD0B5B18BE6E6BC55BF5C5
:101ED400D8905B32D8905B32010E5B165B465B4652
:101EE400BE505B18FB0B5B18BE6E6BC55BF5D890E0
:101EF4005B32D8905B32D8905B32010E5B165B3A52
:101F04005B46C0505B18DF0B5B18C06E0501755152
:101F1400D8B48FEF0FF091EF0FF093EF0FF0000EA6
:101F24005E6E12005E50D8A49AEF0FF09CEF0FF093
:101F3400A1EF0FF0000EBE6EC09A010E5E6E5E043D
:101F4400D8A4A7EF0FF0A9EF0FF006EF10F0100ED2
:101F540049EC15F00C0E5B6ED890033202325B2E06
:101F6400AEEF0FF002500501716F010EA76F150E51
:101F7400A86F6000A8FF5BF56000ACFF5CF5040E81
:101F84005D6ED8905C325B325D2EC3EF0FF05BC5A3
:101F9400A9F55CC5AAF5ACEC15F071C55BF5010EAD
:101FA4005B165B3A5B46BE505B18DF0B5B18BE6E7C
:101FB40071C55BF5D8905B32010E5B165B46BE5073
:101FC4005B18FD0B5B18BE6E71C55BF5D8905B3278
:101FD400D8905B32010E5B165B465B46BE505B18C5
:101FE400FB0B5B18BE6E71C55BF5D8905B32D89065
:101FF4005B32D8905B32010E5B165B3A5B46C05095
:102004005B18DF0B5B18C06E05017551D8B40DEF7A
:1020140010F00FEF10F011EF10F0000E5E6E1200D2
:102024005E50D8A418EF10F01AEF10F025EF10F05E
:10203400000EBE6EC09ABE8A010E05016E6FA6EC3C
:1020440016F0010E5E6E5E04D8A42BEF10F02DEF97
:1020540010F080EF10F04AEC16F00009D8B435EF18
:1020640010F037EF10F02DEF10F0B69854EC16F096
:1020740005016E516E256E6F100E6E19D8A445EFD2
:1020840010F047EF10F049EF10F0010E6E6F6EC5BF
:1020940004F5010E0416043A0446BE500418DF0B7E
:1020A4000418BE6E6EC504F5D8900432010E0416F1
:1020B4000446BE500418FD0B0418BE6E6EC504F52C
:1020C400D8900432D8900432010E04160446044613
:1020D400BE500418FB0B0418BE6E6EC504F5D890F0
:1020E4000432D8900432D8900432010E0416043A13
:1020F4000446C0500418DF0B0418C06E0501755166
:10210400D8B487EF10F089EF10F08DEF10F0A3EC46
:1021140016F0000E5E6E12007EEC15F0AB9E32ECF3
:1021240014F0BDEF10F0ABEC14F0F3EF10F0D6ECBC
:1021340011F0F3EF10F002EC11F0F3EF10F094EC67
:102144000FF0F3EF10F06DEC0EF0F3EF10F027EC5E
:1021540012F0F3EF10F012EC10F0F3EF10F084EC47
:1021640014F0F3EF10F005EC14F0F3EF10F005ECBD
:102174000FF0F3EF10F005017651AF6FB06BB05173
:10218400000AD8B4C8EF10F0F3EF10F0AF51010A11
:10219400D8B495EF10F0030AD8B499EF10F0010AFF
:1021A400D8B49DEF10F0070AD8B4A1EF10F0010ADB
:1021B400D8B4A5EF10F0030AD8B4A9EF10F0010ABF
:1021C400D8B4ADEF10F00F0AD8B4B1EF10F0010A93
:1021D400D8B4B5EF10F0030AD8B4B9EF10F0F3EFA8
:1021E40010F005017551D8B4FAEF10F0FCEF10F0BF
:1021F40091EF10F0F5EC15F091EF10F00DEF00F009
:102204005E50D8A408EF11F00AEF11F013EF11F0AB
:10221400000EBE6EC09ABE8A010E0501726F010ED9
:102224005E6E5E04D8A419EF11F01BEF11F067EF96
:1022340011F0520E026E2A0EE82EFED7022EFCD7A3
:102244000501D8907237100E7219D8A42CEF11F032
:102254002EEF11F030EF11F0010E726F72C502F51E
:10226400010E0216023A0246BE500218DF0B021893
:10227400BE6E72C502F5D8900232010E02160246F5
:10228400BE500218FD0B0218BE6E72C502F5D8903E
:102294000232D8900232010E021602460246BE50A5
:1022A4000218FB0B0218BE6E72C502F5D8900232FA
:1022B400D8900232D8900232010E0216023A024637
:1022C400C0500218DF0B0218C06E05017551D8B456
:1022D4006EEF11F070EF11F072EF11F0000E5E6E00
:1022E4001200050166A179EF11F07BEF11F085EF83
:1022F40011F016C50DF517C50EF514C50FF515C566
:1023040010F5CDEC14F019BE8AEF11F08CEF11F03A
:1023140092EF11F018C51DF519C51EF596EF11F0D1
:10232400000E1E6E000E1D6E000E1C6E000E1B6E47
:10233400A8EF11F0000E056E200E046E14C506F50C
:1023440015C507F572EC12F01B4A1C2A1D501B5CC4
:102354001C50800A1A6E1E50800A1A58D8A0B5EF75
:1023640011F0B7EF11F09CEF11F0050166B1BDEF6C
:1023740011F0BFEF11F0C9EF11F016C50DF517C537
:102384000EF514C50FF515C510F5CDEC14F016C5F2
:1023940002F517C503F52CEC15F01D500224146E3C
:1023A4001E500320156E12005E50D8A4DCEF11F00D
:1023B400DEEF11F0E5EF11F0000EBE6EC09AA6EC50
:1023C40016F0010E5E6E5E04D8A4EBEF11F0EDEF93
:1023D40011F019EF12F04AEC16F00009D8B4F5EF39
:1023E40011F0F7EF11F0EDEF11F0B69854EC16F090
:1023F4000501732B030E7319D8A403EF12F005EF34
:1024040012F019EF12F0BEBA0AEF12F00DEF12F04B
:10241400010E0EEF12F0000EFF0A046E043A044699
:10242400BE500418DF0B0418BE6E000E736F050156
:102434007551D8B420EF12F022EF12F026EF12F00B
:10244400A3EC16F0000E5E6E12005E50D8A42DEFC1
:1024540012F02FEF12F038EF12F0000EBE6EC09A99
:102464008FEC16F09DEC16F0010E5E6E5E04D8A49F
:102474003EEF12F040EF12F062EF12F0100E49EC52
:1024840015F0040E5B6ED890033202325B2E45EFDA
:1024940012F002C568F503C569F5010E0501A76FC1
:1024A400150EA86F68C5A9F569C5AAF5ACEC15F0B9
:1024B40068C502F569C503F561EC16F0ABEC16F0DE
:1024C40005017551D8B469EF12F06BEF12F071EF9A
:1024D40012F097EC16F093EC16F0000E5E6E1200FC
:1024E40006500710D8B479EF12F07BEF12F084EFA6
:1024F40012F006500710D8A482EF12F084EF12F005
:1025040089EF12F004508AEC16F0BCEF12F020EEC2
:1025140004F00650D9260750DA22DE50DE10D8B473
:1025240096EF12F098EF12F0B3EF12F020EE04F0F1
:102534000650D9260750DA2210EE02F00650E126A2
:102544000750E222DE50E65CE650800A0C6EDE5054
:10255400800A0C58D8B0B1EF12F0B3EF12F0BCEF10
:1025640012F020EE02F00650D9260750DA22DE2AB5
:10257400000EDD22120005016D05D8A4C4EF12F08F
:10258400C6EF12F0C8EF12F0100E6D6FD8906D33D5
:102594006DC501F5010E0116013A0146BE50011840
:1025A400DF0B0118BE6E6DC501F5D8900132010E26
:1025B40001160146BE500118FD0B0118BE6E6DC513
:1025C40001F5D8900132D8900132010E011601466E
:1025D4000146BE500118FB0B0118BE6E6DC501F516
:1025E400D8900132D8900132D8900132010E0116F0
:1025F400013A0146C0500118DF0B0118C06E1200E9
:10260400000E606E030E616E000E626E000E636E4D
:10261400100E646E090E656E000E666E000E676E17
:10262400000E686E000E6A6ECD0E6B6E0C0E6C6E34
:10263400000E6D6E080E6E6EB79CB79E6790679223
:10264400AC9EAC9C000E026E000E036E7BEC16F08A
:10265400000E026E000E036E76EC16F0000E026E93
:10266400000E036E80EC16F0800E696E1200000EF0
:102674000201A56F000EA66F000EA76F000EA86FD3
:10268400000EA96F000EAA6FA00EAB6F800EAC6F88
:10269400000EAD6F0C0EAE6F000EAF6F000EB06F7C
:1026A400000EB16F000EB26F000EB36F000E026E1B
:1026B400000E036E6CEC16F0000E026E000E036E3C
:1026C40067EC16F0000E026E000E036E71EC16F04D
:1026D400000E05016A6F1200000EBE6E000EBF6E82
:1026E400000EC06E190EC66EF00EC76E9F0EC86E39
:1026F4006F0E0401106FE00E086F370E006F000EAE
:10270400096F000E016F000E116F000E026F000EB4
:102714000A6F000E126F370E036FF00E0B6F136902
:102724003F0E046FF00E0C6F14690C0E0201586F0B
:102734000C0E516F0C0E576F100E176F170E726F31
:10274400120055C559F556C55AF5000E0501616FBD
:10275400000E606FC1EF13F053C543F554C544F543
:10276400590E456E050E466E57C547F558C548F5D2
:10277400FCEC0BF0435005016027445061236100D9
:1027840064F5F6F4610068F5F7F4F86A0800F550AA
:102794000009D8A4D0EF13F0D2EF13F0AEEF13F08A
:1027A40060C553F561C554F51200000E0301D96FDD
:1027B400000EDA6F000EDB6F000EDC6F000EDF6FB1
:1027C400000EE06F000EE56F000EE76F000EEC6F79
:1027D400000EEE6F000EEF6F000EF06F000EF16F43
:1027E400000EF26F000EF46F000EF56F000EF66F20
:1027F400000EF76F000EF86F000EF96F000EFA6FFF
:10280400800EF36F12005E50D8A40BEF14F00DEF9E
:1028140014F018EF14F0BE84BE8AC09ABE92000170
:102824007881030000F000F0010E5E6E5E04D8A40F
:102834001EEF14F020EF14F026EF14F0BE94BE9AAD
:10284400C08ABE820001789105017551D8B42DEF7C
:1028540014F02FEF14F031EF14F0000E5E6E12003E
:1028640005017451D8A439EF14F03BEF14F04FEF85
:1028740014F0D0B840EF14F042EF14F05AEF14F013
:10288400110E026E3A0EE82EFED7022EFCD700D0AF
:10289400010E0501746F5AEF14F0D0A854EF14F030
:1028A40056EF14F05AEF14F0000E746F010E756FAA
:1028B4001200000ED6BE010E056E380E0001456FE3
:1028C4000350446F610008F443F0610010F446F0D3
:1028D4004151F80B0309416FD69E550E426FAA0E63
:1028E400426F408140B179EF14F07BEF14F074EF44
:1028F40014F005B002D0D69E01D0D68EF80E000199
:10290400411712005E50D8A48AEF14F08CEF14F033
:102914009DEF14F0000EBE6EC09ABE8A010E050132
:102924006D6FD68EAB8E7A0E026E250E036E85EC1D
:1029340016F0010E5E6E05017551D8B4A4EF14F0C3
:10294400A6EF14F0AAEF14F0AB9ED69E000E5E6EB6
:1029540012005E50D8A4B1EF14F0B3EF14F0B8EF46
:1029640014F0000EBE6EC09A010E5E6E5E04D8A412
:10297400BEEF14F0C0EF14F0C1EF14F0BE8A0501ED
:102984007551D8B4C8EF14F0CAEF14F0CCEF14F0BA
:10299400000E5E6E1200000E136E000E126EDEEF5D
:1029A40014F011C504F5056A0FC506F510C507F541
:1029B40072EC12F0124A132A12500D24D96E1350DD
:1029C4000E20DA6EDF50116E1150D8A4ECEF14F023
:1029D400EEEF14F0D3EF14F0120015BEFCEF14F078
:1029E400155006E11404D8B0FAEF14F0FCEF14F01B
:1029F4000AEF15F014C516F515C517F5161E171EA2
:102A0400164A172A16C514F517C515F50EEF15F055
:102A140014C514F515C515F51200000E0301156F44
:102A2400000E166F010E176F0B0E136FDC0E126F74
:102A3400B698125160004CFC02F5036A02C503F516
:102A4400026A02100501A36F0350A46F010E030173
:102A5400146F120002C504F503C505F534EF15F033
:102A6400024A032A610008F4D9F461000CF4DAF490
:102A7400DF50D8A440EF15F042EF15F032EF15F017
:102A84000450025C026E05500358036E1200066E79
:102A9400610018F4ECF30301F38FF39DF38154EF19
:102AA40015F004000301F3B15AEF15F05CEF15F0D3
:102AB40053EF15F0EB51056E046AEA510424026EDB
:102AC400000E0520036E1200B69E0501A551A61145
:102AD400D8B46FEF15F071EF15F07DEF15F002D853
:102AE4007DEF15F00500FA6EA551FD6EA651FE6E40
:102AF400FF6AFA5012001200A9EC16F021EC16F04D
:102B04006EEC13F02FEC16F05BEC16F0D7EC13F030
:102B140013EC16F00FEC15F0C0EC15F039EC13F0D3
:102B240002EC13F01200030114A59BEF15F09DEFC6
:102B340015F0A6EF15F014910350136F610008F41B
:102B440012F31481ABEF15F00350136F610008F416
:102B540012F31200A90E0501AD6F050EAE6F000E43
:102B6400536E000E546EA7C555F5A8C556F5AD0EA7
:102B7400576E050E586EA3EC13F01200580E0301A5
:102B84001B6FF30E196F000E186FB69EAB8E5A0EA4
:102B9400026E2D0E036E85EC16F0800E03011A6F83
:102BA400120001EE60F1370EEE6AE806FDE15E6A9E
:102BB4000401080E5D6F000E5E6F000E5F6F000172
:102BC4008EEF10F0ABAEE9EF15F0EBEF15F0F4EF8C
:102BD40015F0B6AEF0EF15F0F2EF15F0F4EF15F0D6
:102BE40066EC15F01100000E0501756F762B0A0EC8
:102BF4007665FFEF15F001EF16F003EF16F0010E06
:102C0400766F1200026E08EF16F00400B7A20DEF03
:102C140016F00FEF16F007EF16F0610008F4A3F2B8
:102C24001200010E0301206F000E1F6F000E216FB2
:102C34001D69000E1C6FB696800E1E6F1200000EEA
:102C44000001636F000E646F000E656F000E666F07
:102C5400000E676F000E686F1200630E0001AD6F07
:102C6400000EAF6F000EB36F020EB16F000EB06FA7
:102C7400000EAC6F1200380E0001456F0350446F14
:102C8400610008F443F0F80E4117408146511200E8
:102C9400B6B84FEF16F052EF16F0010E53EF16F0E0
:102CA400000E1200A3C502F5A4C503F595EC15F0BA
:102CB4001200180E0001786F170E796F1200610070
:102CC40008F46BF403506C6E120002C59FF503C543
:102CD400A0F5120002C5A1F503C5A2F5120002C5B4
:102CE4009DF503C59EF5120002C599F503C59AF535
:102CF400120002C59BF503C59CF5120002C597F5A9
:102D040003C598F5120002C5A5F503C5A6F5120082
:102D1400036E035004EC16F012000A0E0201166F43
:102D24001200000E0201166F12009AEC16F0120047
:102D340003011E9F1200A0EC16F0120003011E8F67
:102D44001200030114911200030114811200D69A97
:082D5400120069841200120054
:020000040020DA
:10000000FF0FFF0FFF0FFF0FFF0FFF0FFF0FFF0F80
:10001000FF0FFF0FFF0FFF0FFF0FFF0FFF0FFF0F70
:020000040030CA
:0A000000ECFFF7F7ACC7FFFFFFFFAE
:00000001FF
